:020000040800F2
:10000000A00900205DF20008E1EB0008E3EB000826
:1000100000000000000000000000000000000000E0
:10002000000000000000000000000000E7EB0008F6
:100030000000000000000000E9EB0008EBEB000806
:10004000B76700085B760008578900088F910008A1
:10005000FFB90008E3BE000803C10008FBEB00087D
:1000600037CA00084FEC000851EC000853EC0008B8
:10007000CFD40008DFD4000837EB000827F60008CB
:1000800033F60008A1FB0008A3FB0008A5FB00084D
:10009000A7FB0008A9FB0008ABFB000855EC000813
:1000A000ADFB0008AFFB0008B1FB0008F7EB000850
:1000B000F9EB00084DEC0008B3FB000857EC000812
:1000C00000B501009820002203E092B28B5CC018BA
:1000D000521C92B2102AF8DB80B200BD38B5002461
:1000E000002086490870122002F0F0FA00284BD058
:1000F00002F05FFB0400002C0FD02000FFF7E0FFB0
:10010000218A80B2814208D112227D4D210028002F
:1001100002F0BAFB0120794908707848007800287D
:1001200022D112210022764C200002F0DBFB744821
:10013000008802210143724801800520C2490870ED
:100140000320704908706E480088202101436C48E4
:1001500001806B48FFF7B4FF6B490880684802F0E4
:1001600031FB012065490870654800780100C90726
:10017000C90FB64801706248008880B2000A0100C9
:10018000C907C90FB248017031BD80B502F011FB3B
:10019000002807D012225A4902F0CEFB002801D1D4
:1001A000012000E00020C0B202BD00B5A6480078E2
:1001B000062802D30520A4490870A648A249097858
:1001C000415CFA208000484380B200BD10B5A249CE
:1001D0000978002901D1FF2105E0A049A04A127841
:1001E0008918A022895C00229B4B1A709D4A1278C4
:1001F000012A0CD10422994B974C24781B19A02476
:100200001A55954A1278521C934B1A702FE001220E
:10021000924B914C24781B19A0241A558E4A1278BF
:10022000521C8D4B1A708F4A5278002A1FD002221E
:100230008A4B894C24781B19A0241A55864A1278B7
:10024000521C854B1A70884A1278002A0FD1854AB1
:100250005279012A0BD10522804B7F4C24781B193F
:10026000A0241A557C4A1278521C7B4B1A707D4A86
:100270005279012A0BD00922784B774C24781B192C
:10028000A0241A55744A1278521C734B1A70062215
:10029000724B714C24781B19A0241A556E4A12789F
:1002A000521C6D4B1A7008226C4B6B4C24781B1936
:1002B000A0241A55684A1278521C674B1A70C0B2B3
:1002C000002804D066480078401C654A10706448D5
:1002D0000078614A1278904202D30020604A107080
:1002E0005E485F4A12788018A022805CC9B28142C1
:1002F00002D0FF209B49087010BD00007E2700201F
:100300009427002096270020A427002070B582B0F3
:10031000002400260EE00120009023009B1DDBB28C
:100320002A001032D2B22100C9B22800C0B202F0B5
:100330002BFC761C300048490978C0B2884224D290
:1003400010257543300046490978C0B28842E2D092
:100350000020009023009B1DDBB22A001032D2B295
:100360002100C9B22800C0B202F00EFC01200090AA
:1003700023009B1DDBB22A001032D2B22100C9B289
:100380002800C0B202F0C6FBD3E7602535480078EC
:10039000002801D1722206E073480078002801D1BC
:1003A000782200E07422002000900623D2B22100BF
:1003B000C9B22800C0B202F076FC083523480078A4
:1003C000002801D06D2200E0612201200090062368
:1003D000D2B22100C9B22800C0B202F064FC0835D4
:1003E0002148007800280DD1C3480078032809D19E
:1003F00001200090062373222100C9B22800C0B258
:1004000002F051FC0835CA480078002801D0652266
:1004100000E02022012000900623D2B22100C9B2C0
:100420002800C0B202F03FFCE41D01200090230030
:10043000DBB280222100C9B2002002F007FBA41C1D
:100440002000C0B276BD0000972700207927002049
:100450007B27002008FB00088E270020E4260020D0
:100460008F2700208C2C00201128002070B582B02E
:1004700006003C48007800282FD1012000903E2340
:100480007F223F21002002F0E1FA002515E03F2005
:10049000A8490968EDB202226A43895AB0224A4348
:1004A000110C441A012000902300DBB2022221002B
:1004B000C9B2002002F0CAFA6D1C2800C0B29E49E1
:1004C000098880B28842E2D3012000903F230122B4
:1004D0003100C9B2012002F0B9FA22480578AD1CFA
:1004E000C5480088B02141430C00240C3E20041B69
:1004F0001C480078002812D02000C0490978C0B2FA
:1005000088420CD0012000902300DBB22A00D2B236
:10051000BA4801782800C0B202F098FA06E0012239
:100520002100C9B22800C0B202F059FAB2480088CE
:10053000B34909884843800AB249884200D3B24887
:100540003E2124225043000C091A06480078C007B7
:1005500005D50122C9B22800C0B202F040FAA7486E
:10056000047073BD0C28002092270020F8B5050008
:100570000F001600002413E0FFB20820E4B2001BB5
:10058000062148433B1801200090DBB22A00121DCF
:10059000D2B2191FC9B22800C0B202F0F5FA641C29
:1005A00020003100C0B2C9B28842E5D3F1BDF0B538
:1005B00083B006000224C24802783100C9B220008C
:1005C000C0B2FFF7D3FF02223100C9B27920FFF792
:1005D000CDFFA41D14360120009033001433DBB28C
:1005E00022001632D2B2B11EC9B22000C0B202F04F
:1005F00091FA0120009033001233DBB22200143252
:10060000D2B23100C9B22000801CC0B202F082FA1E
:10061000012000901023ABA23100491CC9B2200078
:10062000C01CC0B202F0E6FB012000903300123380
:10063000DBB27F20021BD2B23100C9B26D20001B99
:10064000C0B202F067FA012000901023C9A2310065
:10065000491CC9B26E20001BC0B202F0CBFB1234A1
:10066000B61DC5480078002845D07A20E4B20221A2
:100670006143451AEDB22800082102F0D9FD694610
:100680000871EDB26846007908214843281A022112
:1006900002F0CEFD401D241800271BE0E4B2072025
:1006A000FFB2C01B69460979484325180120009014
:1006B00033001B1DDBB2684600792818821ED2B2B7
:1006C0003100C9B22800C0B202F05EFA6846007973
:1006D0002D187F1C380019490978C0B288420AD207
:1006E000A54800780128D9D1E4B2FFB26846007964
:1006F00078432518DAE7F7BD1028002038B5050043
:100700000C00D2B2002A09D00020009010239B4A8E
:100710002100C9B22800C0B202F06CFB00221034E4
:100720002100C9B22800C0B202F002FC31BD0000B5
:100730007D27002014280020122800200C280020EB
:1007400070B592B005000C008D48C2788D4901A8A3
:1007500002F0C8FD01200090082301AA2100C9B2BF
:100760002800C0B202F046FB0934012000900823A3
:1007700001AA2100C9B22800C0B202F03BFB093433
:1007800081480278814901A802F0ACFD0120009067
:10079000082301AA2100C9B22800C0B202F02AFB36
:1007A000093402F060F8060002F05DF8330CC2B2C2
:1007B000774901A802F096FD01200090082301AAC4
:1007C0002100C9B22800C0B202F014FB0934C148AC
:1007D000F82142566F4901A802F084FD01200090E3
:1007E000082301AA2100C9B22800C0B202F002FB0E
:1007F000093412B070BD0000CC2700200D28002065
:10080000CE270020797D0100787D0100F1B582B00E
:100810000298002853D05A484078002809D101F0A6
:1008200050FE5749487056484078002847D002F09B
:1008300070FC029802F072FD0700402F02D21024D3
:10084000082501E0082406258020EDB2290002F0E9
:10085000EFFC0100C9B27818401EC9B202F0EBFCEF
:1008600006004020E4B2210002F0E2FCC0B2B04237
:1008700005D24020E4B2210002F0DAFC0600022E8C
:1008800001D3002505E080206F43C01B0500EDB2B9
:100890006D0840206643801B0600F6B276080020F3
:1008A00002F026FC002000902300DBB2029A310007
:1008B000C9B22800C0B202F09DFA02F0A8FBF7BD51
:1008C0009027002054580000F0B583B004000E00BB
:1008D00017004020801B3049097807293DDBC0B252
:1008E00000042D49097802F0A3FCF6B2FFB23900EA
:1008F0004143090C75186946EDB206225043000CBD
:1009000028180871FFB2002F0BD0002000902B0098
:10091000DBB22200D2B23100C9B22000C0B202F074
:1009200095F801200090684603792200D2B2290090
:10093000C9B22000C0B202F089F8684600794028A8
:1009400016DA0020009040232200D2B268460179D6
:100950002000C0B202F07AF80AE0012000904023A3
:100960002200D2B23100C9B22000C0B202F06EF84B
:10097000F7BD00005258000091270020D8FA000867
:100980008C2C0020D4F90008C6270020E0F90008CC
:1009900014F80008E0FA00080B280020F0B593B026
:1009A0004C48B04909784018A021465CAE484478CC
:1009B000AE480290AE4DAF4F01F083FD0400AA484F
:1009C00040782100C9B2884209D0A748447000206D
:1009D000FFF7FCFBE4B2002C01D002F09AFBA24826
:1009E0004078002801D100F0F9FB029880780028B7
:1009F00005D0002002F07CFB002002998870FFF7F0
:100A000085FC0400F6B2002E00D1B0E0022E11D019
:100A10001AD3042E18D000D2A9E0062E00D132E15C
:100A20000DD3082E00D115E200D282E1092E00D1AB
:100A300022E1CEE32000C0B2FFF718FDC9E3200099
:100A4000C0B2FFF7B4FDC4E3A41CF6B2012E05D179
:100A5000EA8CBB4903A802F045FC04E02A8EB949A0
:100A600003A802F03FFC01200090082303AA210004
:100A7000C9B2002002F0BEF90A34AA8CB24903A818
:100A800002F030FC01200090082303AA2100C9B223
:100A9000002002F0AFF90A34F6B2012E05D12A8DFA
:100AA000AA4903A802F01EFC04E06A8EA84903A824
:100AB00002F018FC01200090082303AA2100C9B20B
:100AC000002002F097F90A34688D002804D0688D60
:100AD00004E000BFE4260020698D48420A2102F0AC
:100AE000A7FB0B001F00688D0A2102F0A1FB02008A
:100AF0003B00D54903A802F0F5FB01200090082334
:100B000003AA2100C9B2002002F074F902230122D5
:100B10002100891CC9B2452002F097F80A34F6B2C8
:100B2000012E05D1EA8DC94903A802F0DBFB06E0DE
:100B3000A88D04224243C64903A802F0D3FB01203A
:100B40000090082303AA2100C9B2002002F052F944
:100B50000A34E048008880B240090200D207D20F70
:100B60002A3C2100C9B25720FFF7C8FD31E3A41C7D
:100B7000F6B2002E05D1EA8CD74903A802F0B2FBE9
:100B800004E02A8ED54903A802F0ACFB01200090B6
:100B9000102303AA2100C9B2002002F02BF9D0488B
:100BA0000068D049097802225143405AFA2189004D
:100BB00002F03EFB0200CC4903A802F093FB0120A7
:100BC0000090102303AA2100C9B2512002F012F9AB
:100BD0001034F6B2002E05D12A8DC44903A802F0C4
:100BE00081FB04E06A8EC24903A802F07BFB01206E
:100BF0000090102303AA2100C9B2002002F0FAF8E5
:100C00001034688D002801D0688D01E0698D48425C
:100C10000A2102F00DFB0B001E00688D0A2102F074
:100C200007FB02003300D44903A802F05BFB01205C
:100C30000090102303AA2100C9B2002002F0DAF8C4
:100C4000022301222100091DC9B2432001F0FDFF4A
:100C5000123400222A3C2100C9B25720FFF74EFD72
:100C6000B7E200BF8F2700208C2C00200C2800202A
:100C7000A6270020F627002003A92000C0B202F01A
:100C800099FC0400A5E2A41C6B882A88D24903A819
:100C900002F028FB01200090082303AA2100C9B21A
:100CA000002002F0A7F80A34EB882A79CB4903A880
:100CB00002F018FB01200090082303AA2100C9B20A
:100CC000002002F097F80A346B892A89CD4903A8DD
:100CD00002F008FB01200090082303AA2100C9B2FA
:100CE000002002F087F80A34EB89AA89C64903A8D4
:100CF00002F0F8FA01200090082303AA2100C9B2EB
:100D0000002002F077F80A340820019009200090B2
:100D100000236A8CC84903A802F0E4FA012000907D
:100D2000082303AA2100C9B2002002F063F80A34A4
:100D30004FE2A41CCA48007801280BD12E8E0AE08D
:100D4000ECF90008F8F9000804FA000810FA0008A5
:100D50001CFA0008EE8CB6B2330044202A5ACA4965
:100D600003A802F0BFFA01200090082303AA210083
:100D7000C9B2002002F03EF80A346B8E42202A5A93
:100D8000CB4903A802F0AEFA01200090082303AA81
:100D90002100C9B2002002F02DF80A342B8D40202A
:100DA0002A5AC44903A802F09DFA012000900823A2
:100DB00003AA2100C9B2002002F01CF80A34688D91
:100DC00002F060FE0022C54B02F06CFE0090019123
:100DD0004620285E02F04CFE0022C14B02F062FE6B
:100DE00002000B00BF4903A802F07CFA012000902A
:100DF000082303AA2100C9B2002001F0FBFF02234F
:100E000001222100891CC9B2332001F01EFF0223F8
:100E100001222100891CC9B26F2001F016FF0A349B
:100E2000F6B233008E48C278C04903A802F05AFADD
:100E300001200090082303AA2100C9B2002001F07C
:100E4000D9FF0A34C5E100BF24F8000834F80008CF
:100E500028FA000802980078152800DBB9E16846F6
:100E6000047102980078062803DB02980078461F78
:100E700000E0002635000BE00020C0B200900823FF
:100E800003AA2100C9B2002001F0B4FF09346D1C8F
:100E9000EDB2F6B23000801D854204DA2800797D7B
:100EA000C0B2884226D33200D2B2684601794B20C4
:100EB000FFF70AFD0748008880B200090100C90752
:100EC000C90F002900D175E1684601794E20FFF76E
:100ED00037FC7DE19427002034FA000840FA00082E
:100EE0001428002077270020E8FA00084CFA0008B0
:100EF00058FA0008EDB2785D00282ED002285BD0A9
:100F00003CD3042800D181E06AD3062800D1A1E0B7
:100F100000D28CE0082800D190E040D30A2800D10C
:100F2000B4E000D29EE00C2800D1DDE000D2C3E0A6
:100F30000E2800D115E100D200E1102800D1F7E021
:100F400000D2E2E0122800D1F2E000D2F0E0142852
:100F500000D1EDE000D2EBE01DE1A14800780100F6
:100F6000C907C90F002901D09EA200E09EA29F4997
:100F700003A802F0B7F914E164FA00089848008861
:100F800080B240080100C907C90F002901D0984A62
:100F900000E098A2984903A802F0A4F901E1FFF744
:100FA00004F980B2FA21890002F042F90200934963
:100FB00003A802F097F9F4E0B1480078002806D0C1
:100FC000AF480278AF4903A802F08CF903E0AE49BC
:100FD00003A802F087F9E4E060F6000878F600085C
:100FE0007F48008880B280080100C907C90F002926
:100FF00001D07DA200E07BA2A44903A802F072F90F
:10100000CFE000BF90F60008A8F6000874480088FA
:1010100080B2C0080100C907C90F002901D072A21F
:1010200000E070A29A4903A802F05CF9B9E099497E
:1010300003A802F057F9B4E0ACF50008FFF7A5F8F3
:10104000002801D068A200E066A2934903A802F03C
:1010500049F9A6E0914903A802F044F9A1E000BFD4
:101060008C2C00205E48008880B200090100C9076E
:10107000C90F002901D05CA200E05AA2884903A848
:1010800002F030F98DE000BF78F70008544800887E
:1010900080B240090100C907C90F002901D052A23E
:1010A00000E050A27F4903A802F01CF979E000BFDC
:1010B0008CF70008A0F700084948008880B2800932
:1010C0000100C907C90F002901D047A200E045A2CD
:1010D000754903A802F006F963E000BF0000244050
:1010E00000006040C0F600083D48008880B2C0099A
:1010F0000100C907C90F002901D03BA200E039A2B5
:101100006A4903A802F0EEF84BE03548008880B247
:10111000000A0100C907C90F002901D032A200E06E
:1011200030A2634903A802F0DDF83AE0D8F60008DF
:1011300003A9EDB2785D02F063FB32E05D48007810
:10114000002804D15C4903A802F0CCF808E0594813
:1011500002780A2042436432584903A802F0C2F8D8
:101160001FE057480078002804D1564903A802F030
:10117000B9F80FE052480078012804D1524903A879
:1011800002F0B0F806E04E480278521E4F4903A81C
:1011900002F0A8F805E0EDB27A5D4D4903A802F02F
:1011A000A1F8029800782900C9B2884200D163E60C
:1011B000012062E60A48008880B240090200D20796
:1011C000D20F684601790A31C9B25720FFF796FA63
:1011D000FFE701F01CFF3F4802F0D9FC13B0F0BD5F
:1011E000942700206E6F00007965730044F80008B2
:1011F000F0FA00086F66660070FA000854F80008FC
:1012000010B501F0A2FE002405E000212000C0B2CC
:1012100002F047FD641CE4B2062CF6DB03F033FD5C
:1012200010BD2D4800214175417D0A00521C4275B8
:101230000122C9B24254417D0A00521C427500226B
:10124000C9B24254417D0A00521C42750722C9B2FC
:101250004254417D0A00521C42750822C9B24254D0
:10126000417D0A00521C42750522C9B24254417D9B
:101270000A00521C42750622C9B24254704700004F
:101280009627002064F8000874F8000884F8000825
:1012900094F80008A4F80008B4F80008C4F800089E
:1012A000D4F80008E4F80008F4F8000804F900088D
:1012B00014F900089827002024F9000834F90008E0
:1012C0009327002044F9000854F9000864F9000845
:1012D0007CFA0008FC260020F627002080B5C0B26A
:1012E000152800DB38E1C0B200282DD0022800D13B
:1012F000A1E038D3042800D1D3E000D2B5E006281D
:1013000000D1F2E000D2EDE0082800D1E7E000D201
:101310009EE00A2865D079D30C2852D035D30E2808
:1013200000D1F5E000D2E6E0102800D111E100D2B2
:10133000FFE0122800D10CE100D20AE1142800D10C
:1013400007E100D205E107E18448008884490140B3
:1013500082480088012242401000C007C00F0843A5
:101360007E490880F8E07D4800887E4901407B483E
:101370000088C0B2400801224240D2B2500002228E
:101380001040084375490880E6E0744800887649B3
:10139000014072480088C0B2800901224240D2B2A6
:1013A00090014022104008436C4908806B48008837
:1013B000010089B289090800C007C00F04F0E2F9F2
:1013C000CAE0664800886949014064480088C0B2A4
:1013D000C00901224240D2B2D00108435F490880CF
:1013E000BAE05E480088624901405C480088C0B2AB
:1013F000400901224240D2B250012022104008434D
:101400005649088001205B490870A5E053480088D0
:101410005949014051480088C0B2000901224240A8
:10142000D2B210011022104008434C49088001201C
:101430005049087090E051480078401C4F490870AE
:101440004E480078062802DB00204C49087083E0F3
:101450004B480078401C4A490870494800780628E3
:1014600002D300204649087076E03C480088454990
:1014700001403A480088C0B2800801224240D2B2FE
:101480009000042210400843344908803348008803
:10149000010089B289080800C007C00F04F068F98C
:1014A0005AE02E480088384901402C480088C0B2D4
:1014B000C00801224240D2B2D000082210400843A6
:1014C0002649088025480088C0B2C0080100C90725
:1014D000C90F01204840C0B204F0F2FC3CE000F02B
:1014E000FBFF39E0FFF78CFE36E02848FFF78EF966
:1014F00003F05DFB30E026480078401C244908706A
:1015000023480078092802DB00202149087023E0E5
:1015100020480078401C1F4908701E4800780528A4
:1015200002DB00201B4908701A48007804F07AFB9F
:1015300012E00A48008818490140084800888022C3
:10154000520042408020400002400A43034802808B
:1015500002E0C0B202F0BCF901BD000094270020F7
:10156000FEFF0000FDFF0000BFFF00007FFF000046
:10157000DFFF00000E280020EFFF0000962700206C
:1015800097270020FBFF0000F7FF0000F8FA000893
:101590009827002093270020FFFE000038B5C825BB
:1015A000C24CC348C34909784018A021405C0028B8
:1015B00000D1B1E0022800D1AEE000D2ACE00428B6
:1015C00020D01FD306285ED007D3082800D114E10D
:1015D00000D2D1E0092843D05FE1B748007808285D
:1015E00009DB0020B44908700120B44908700020CC
:1015F000B349087004E0B0480078401CAE49087058
:1016000064254AE10222210024318B20400004F0AD
:1016100019F90222210030318C20400004F012F927
:101620000222210032318D20400004F00BF9022209
:1016300021002A318E20400004F004F9022221000A
:101640002C318F20400004F0FDF89B4800780028E2
:1016500005D00020984908700120984908701CE1C5
:1016600001F010FF94480078802806DB00209249A2
:10167000087001209149087004E08F480078401CF0
:101680008D49087009E18C480078022843DB02226A
:101690002100002004F0D6F80122A11C022004F051
:1016A000D1F80122211D032004F0CCF80222A11D53
:1016B000042004F0C7F8022221000831062004F0BB
:1016C000C1F8022221000A31082004F0BBF80222EE
:1016D00021000C310A2004F0B5F8022221000E315D
:1016E0000C2004F0AFF8102221001031102004F07B
:1016F000A9F802226946B04804F0A4F868460078C8
:101700000002694649784018608401206B490870DE
:10171000002069490870C0E0022221002431922093
:1017200004F090F8022221002631942004F08AF877
:10173000022221002831962004F084F802222100A0
:101740002A31982004F07EF8022221002E319A20BE
:1017500004F078F858480078802806DB00205649C5
:10176000087001205549087004E053480078401C77
:1017700051490870642590E04F480078022805DB45
:1017800001204E49087000204B4908700020208736
:10179000002060870020A0870020E08700204021F3
:1017A00060520020422160520020442160520020FB
:1017B000462160520222210030318C20400004F08A
:1017C00041F80222210032318D20400004F03AF825
:1017D000022221002631942004F034F80222210054
:1017E0002831962004F02EF8022221002A318E2082
:1017F000400004F027F8C8254FE02F48007815284E
:1018000007DB01202D49087000202B490870FFF7E5
:1018100008FD0122210020310E2004F013F80222DD
:1018200021003431A42004F00DF8012221003631CA
:101830005E2004F007F8A3480068A3490978022253
:101840005143405A3421615E80B2814203DA34212F
:10185000615E411A00E000213421615E80B2814264
:1018600017DA3421615E411A3420225E8020504311
:1018700089B201F0DDFC00B27F21C943884201DA60
:101880007F20C04300B2802800DB7F2037216054D6
:1018900002E07F2037216054FFE729008B4802F0E7
:1018A00067F98A4802F073F931BD0000A6270020CD
:1018B000E42600208F2700200C2800200E2800207E
:1018C00091270020E0B50100684602F051F9684612
:1018D00002F05DF903E000F00DFC03F05FFB6846E9
:1018E00002F05EF90028F6D007BD10B5784880797F
:1018F000032803D076488079052801D1002405E02B
:10190000012403E06420FFF7DDFF641CA4B2142C63
:101910001EDAE00701D5612000E02C20AF4BB04972
:10192000098889B289080A00D207D20FFF21C0B204
:1019300003F0FCFEAA480088010089B2890908006A
:10194000C007C00F03F01EFF03F0E6FF0028D9D048
:10195000A4B2142C03DBA348FEF758FFFEE7B54AF8
:101960005849A14804F03AF8B248048800E0641EDF
:10197000A4B2002C0CD0FEF718FC52490968A4B29E
:10198000022262438918891E098880B28842EED3F8
:10199000A4B2002C00D10124A648048010BD80B55B
:1019A000FA210901A44802F0E3F8A34802F0EFF895
:1019B000464802F0F2F801BD87D00000F4B50200FD
:1019C00000209E4B00240DE0E4B2022565434D5BF0
:1019D000551B2E001F00B6B2BFB2BE4201D220007E
:1019E0002B00641C2500EDB26E463688ADB2B542C0
:1019F0000DD21500E4B2022666438E5BADB2B5424D
:101A0000E2D2E4B2022565434D5BAD1AE1E7C0B214
:101A1000F2BD70B504000D00002602228849942012
:101A200003F010FF83480288264801688448008834
:101A3000FFF7C4FF24490870E4B2002C21D02248EB
:101A400000784619F6B27B480088401E864202DBC9
:101A500078480088461E1C4800783100C9B2884288
:101A60000BD018480068F6B202217143405A04F0C6
:101A700071F8002803D014480670012070BD0020C2
:101A8000FCE7280010490978C0B2884203D20E480A
:101A90000078461B00E000260B4800783100C9B2F0
:101AA0008842EAD007480068F6B202217143405AE2
:101AB00004F050F8002802D003480670DDE700204B
:101AC000DCE70000142800207727002008270020EA
:101AD0008C2C002010B582B00020694608800024BC
:101AE000824800788249097888426AD0AD480078F7
:101AF000002866D0BE4800780D2862DA7D4802F0E2
:101B000064F8002804D07B4802F04AF8002858D036
:101B100077480078002855D0754804780A20444357
:101B20006434022269469A2003F08CFE002848D0D3
:101B3000AF480078002814D0E4B22000401C694669
:101B4000098888420DDB68460088E4B2611E88423D
:101B500007DB67480078654908700020A4490870D1
:101B60002FE0684600882100C9B289B288420AD2B3
:101B7000684600880A30E4B2A04203DA6846048866
:101B80000A340BE00AE0E4B220000A306946098812
:101B9000884203DA684604880A3CFFE72100C9B29C
:101BA0002000C0B204F034F891480078401C9049FD
:101BB0000870FA2149004F4801F0DAFF4D4801F062
:101BC000E6FF13BD0021002004F022F84848007809
:101BD00046490870002086490870F2E7C5180008D9
:101BE00094270020B4F700081128002080B5B948D8
:101BF0000078002805D0022813D00AD3032814D077
:101C000014E003F00FFF002802D00120B149087052
:101C10000FE003F03BFF002802D00220AD4908701E
:101C200007E00320AB49087003E002E00020A94967
:101C3000087001BD12280020F0260020FFFF0000E0
:101C4000CC27002010B582B000206946088000240F
:101C50005448007828490988491E884203DA002040
:101C6000B24908702CE09C480078002828D09B4896
:101C700001F0ABFF002806D16421984801F078FFFD
:101C8000964801F084FF954801F08AFF002817D09C
:101C900002226946962003F0D5FD68460088A449D3
:101CA000884204DB8C4804780A20444305E06846F7
:101CB0000088A049884200DB0A24884801F067FFB9
:101CC00020009A490978C0B288420ED09A4800682C
:101CD0003449097802225143405AE4B20A2161434F
:101CE000401A03F01FFF9148047013BDA428002080
:101CF00098270020A82800201228002010B5FA24D8
:101D0000A4008E480078002805D101208B49087076
:101D10000020FEF75BFA8A480078002841D16D4820
:101D20000078032805D0FFF761FF6420FFF7CAFDA4
:101D300037E0FFF7CFFE83480078002804D08248C0
:101D400004F0BAF900282CD0804801F029FF0028BF
:101D500012D07F480078002807D101210120FFF729
:101D600058FE002801D0FA2424012100774801F010
:101D7000FFFE764801F00BFFAE48007800280ED039
:101D8000AC480078012801D1012000E00020AA49D8
:101D90000978C0B2FFF73DFE0020A6490870FFF7A2
:101DA00051FF10BD7727002080B5644800780028D7
:101DB0001DD1A2480078002819D00120694608806A
:101DC00002226946202003F06DFD6420FFF77AFDB2
:101DD000012069460880022269468820400003F0FD
:101DE00061FD0120554908700020FEF7EFF901BDA3
:101DF000A528002080B5002069460880B8480078F2
:101E0000002801D1922001E08B2040000222694687
:101E100080B203F017FD6846008802BD10B50024AB
:101E2000B04801F0D2FE002806D16421AD4801F08F
:101E30009FFEAC4801F0ABFEAA4801F0B1FE0028BD
:101E400047D0A948007800280FD1A848008880B260
:101E500040080100C907C90F002906D0FFF7CAFFD3
:101E6000A349884217DB012415E09F480078002829
:101E700011D09E48008880B240080100C907C90FF0
:101E8000002901D1022406E0FFF7B4FFFA2149013D
:101E9000884200DA0224E4B2012C17D1012003F0B9
:101EA000F1FE1E20FFF70EFD012001F0F3FE0028D9
:101EB00008D01E20FFF706FD012003F043FF01209C
:101EC00089490870012088490870FFE7854801F0BA
:101ED0005EFE10BD102800209627002068270020F5
:101EE00080B5AC48007800281ED10120A9490870AF
:101EF0007B480078012802D1FFF756FF01E0FFF789
:101F0000FDFEFFF78BFFA44801F05FFE002804D020
:101F1000A14801F045FE002803D0FFF73FFBFEF784
:101F20003DFD00209B49087001BD00008127002075
:101F3000C5090000D1070000142800207C270020DC
:101F4000802700207B27002018280020F026002072
:101F50007927002010B50400022290498C2040000F
:101F600003F070FC03228E498C480088FFF726FDA1
:101F7000BD490870BC480078032802D30220BA4942
:101F800008702E480078022853D1B84801F01DFE91
:101F9000002807D0B54801F003FE002849D0B34817
:101FA00001F0FBFDFA214900B04801F0E1FDE4B287
:101FB000002C16D0AC480078022829D2AC48006822
:101FC000A9490978022251434018408802F002FAD8
:101FD000A5480078401CA4490870A44801F0D7FD2A
:101FE00016E0A1480078002812D0A14800689E4958
:101FF0000978022251434018801E008802F0EAF955
:1020000099480078401E98490870984801F0BFFD33
:10201000974800689449097802225143405A9549EB
:10202000884203DB002003F01DFF02E0012003F0E3
:1020300019FF10BD8227002083270020922700204F
:1020400010B504008C4801F0C0FD002807D08A4874
:1020500001F0A6FD002835D0874801F09EFDFA2149
:102060004900854801F084FDE4B2002C15D0834876
:102070000078082826DA012003F0B8FD7F480078B0
:10208000401C7E4908707C4801F081FD02207C499B
:10209000087000207B49087014E078480078002818
:1020A00010D0002003F0A2FD74480078401E734950
:1020B0000870714801F06BFD022071490870002022
:1020C0007049087010BD80B5FA214900C04801F080
:1020D0004FFDBF4801F05BFD0020BE49087001BD07
:1020E0008C2C00205C2700207D27002094270020D6
:1020F0001127000010B5B64801F052FD002830D07D
:10210000002406E0B34801782000C0B201F0C9FD08
:10211000641C554800782100C9B28842F2D2E4B26A
:10212000062C06DA00212000C0B201F0BAFD641CC2
:10213000F5E7A8480078002801D1012000E0002040
:10214000A4490870A4480078002802D096214900CC
:1021500001E0FA2149009E4801F00AFD9C4801F087
:1021600016FD10BD10B5002410E0C82149009848A4
:10217000E4B20C2262438018303001F0F9FC0020F8
:102180009349E4B2091990228854641CE4B2032CE8
:10219000EBDB10BD7A27002008270020D62700207F
:1021A00000FB000838B502F0B7FA040000251EE075
:1021B0008748EDB20C2169434018303001F0F0FC43
:1021C000002813D08248EDB240199021405C0101F3
:1021D0002807000F0843C0B200F056F87C48EDB263
:1021E0000C2169434018303001F0D7FC6D1CEDB272
:1021F000032D37DA2000E840C007D9D57448EDB286
:102200000C2169434018303001F0DFFC00280ED16A
:102210006F48EDB20C2169434018303001F0B7FC33
:1022200000206B49EDB2491990228854DEE76848D6
:10223000EDB20C2169434018303001F0A8FC64482D
:10224000EDB240199021405C0E28CFDA6048EDB223
:1022500040199021405C401C5D49EDB24919902223
:102260008854C3E731BD00007727002044270020B1
:102270001428002028230000502700209027002049
:10228000912700200C28002010B5040050489949DF
:1022900009784018A021405CC0B20028022826D945
:1022A000C01E012815D9801E05D0C01E47D0401E73
:1022B00000D17EE082E0E4B2002C03D10120FFF7E0
:1022C000BFFE05E0E4B2022C02D10020FFF7B8FE09
:1022D00074E0E4B2002C03D10120FFF73BFE05E0DF
:1022E000E4B2022C02D10020FFF734FE66E02007A2
:1022F0000CD10120804908702000C0B20009401CA8
:102300007E49087001203449087017E0E4B22007C4
:10231000000F02280CD10220774908702000C0B2BB
:102320000009401C7549087001202B49087005E020
:10233000E4B2112C02D10020274908703EE0E4B23B
:10234000002C09D12248A349097840188921490065
:10235000405CFEF7C3FF2BE0E4B2022C0ED19D4897
:102360000078401C9B4908709A4800789A4909787F
:1023700088421DD300209749087019E0E4B2202C50
:102380000ED196480078002801D1012000E00020FD
:1023900092490870FEF745FF00208E49087007E05B
:1023A000E4B2402C04D18E48FEF730FA02F0FFFB75
:1023B00004E02000C0B201F01BFBFFE7E4B2012CF7
:1023C00002D10120FDF702FFFEF7E8FA10BD000080
:1023D000E4260020782700207927002070B582B0FD
:1023E00000250024002616E000206946088002220D
:1023F0006946922003F026FA684600882D180020CE
:102400006946088002226946942003F01BFA684658
:1024100000882418761CF6B2082EE5DBAC4201D207
:10242000002000E00120C0B276BD80B56D4801F00B
:10243000B7FB00282AD06B4801F0AFFB6A48007850
:10244000012803D1FFF7CAFF674908706748007881
:10245000002814D16448C078002817D16248007859
:10246000012813D102F044F9012060490870604945
:102470005C4801F07DFB5B4801F089FB06E05B48AE
:102480000078012802D102205849087001BD80B5AA
:102490006421584801F06CFB53484078002801D073
:1024A00000F037FE01BD80B5524801F08EFB0028D8
:1024B00004D0504801F074FB002801D0FEF76EFAFA
:1024C00001BD80B500F073FA02BD00B5002801D04F
:1024D00012210170484800BD80B5FDF756FE002866
:1024E00007D14548FDF7ECFD44490880424800F01B
:1024F00069F901BD8F270020822700208327002053
:1025000010B5E821490000223D4C200000F0EAF916
:1025100040210022344C200000F0E4F9FDF7DEFDFC
:1025200004F006F99621C9002E4801F021FB2D4840
:1025300001F02DFB334802F0ACFB2B498871FFF70B
:10254000D4F9FFF7C0FDFFF749FF274908700120C4
:102550002D4908702D480078042804D004202B4908
:102560000870FFF7B9FF28480078042802D102203C
:10257000274908702749244800F00AFF26490870B7
:10258000FFF79FFF184948700020FDF71FFEFFF777
:10259000E9FDFFF704FAFFF77AFF204803F06DFD2D
:1025A00010BD80B504F0FAF80F48807800280BD1F0
:1025B000FFF7F8FDFFF777FFFFF792FC00F055FFFC
:1025C000FFF733FFFFF796FD07480079401C0649E7
:1025D000087101BD0C2800200B2800207F27002057
:1025E000F8FA0008382700208C2C002092270020C1
:1025F00088130000FC26002094270020A427002038
:10260000E4260020AC2C00209927002098270020E9
:102610008F270020912C00208027002018280020E0
:1026200000B594480068002805D0924880889149F8
:102630000989884201D300200CE08E48C188491DD9
:102640008D4808408B4909688A4A928880B2424383
:1026500088180C3000BD10B513005A1E9BB2002B19
:1026600012D092B202235343C35A92B2022454436B
:102670000C5BA342F0D092B202235343C35A7F4C67
:10268000A342E9D0002000E0012010BD38B50500CC
:102690007B4869460880FFF7C3FF0400002801D18A
:1026A000002012E0012269462000FFF7D4FF002835
:1026B00001D1002009E06F48C088401C4010020092
:1026C00092B22900A01CFFF7C6FF32BD70B582B0E0
:1026D00005006946674802F071FA002802D0ADB2E1
:1026E000002D04D1002063490860002060E028002C
:1026F000401D614E06405F480068002805D00099E3
:10270000B6B230000C30814204D200205949086032
:1027100000204DE05748C58000980C38B6B2310013
:1027200000F089FD534908815448524988800020AF
:10273000504948814F4800680168524A914236D159
:10274000818880225200914231D1C188ADB2A94224
:102750002DD10189474A1289914228D140894549A2
:102760004881002100E0491C0800424A128980B2D9
:1027700090420CD23F48026889B2B6B2080070435A
:1027800010180C300488A4B23D488442EBD089B2C2
:10279000002903D0A4B23948844205D00800354A44
:1027A000128980B2904202D1481E324988800120AD
:1027B00076BD80B5FFF734FF002801D0801C00E013
:1027C000002002BD30B585B005002D48694608805F
:1027D00028480068002806D1002042E0254880886B
:1027E000401C244988802800FFF750FF002829D189
:1027F000204880881F4909898842EFD31D48006816
:1028000002F0ECF91B484089401C1A4948811D48D8
:1028100001908020400001A988801648C08801A945
:10282000C8801448008901A908811248408901A97B
:1028300048810C2201A90F48006802F0E5F9002048
:102840000C498880FFF7ECFE040002226946200054
:1028500002F0DAF90748C2882900A01C02F0D4F976
:10286000012005B030BD0348808800040149498932
:1028700008437047F82C0020FCFF0000FFFF000019
:10288000A55A00005A5AAA55124207D08B0706D003
:102890000B78491C0370401C521EF7D87047830701
:1028A00006D00B78491C0370401C521EF9D17047AA
:1028B00070B4103A03D378C9103A78C0FBD25307EA
:1028C00001D318C918C001D508C908C0D20704D35C
:1028D0000B880380891C801C002A01D50B780370AB
:1028E00070BC70471206130A1A43130C1A4300BF38
:1028F000094205D0830705D00270401C491EF9D15A
:1029000070470000130030B414001500103902D3D2
:1029100010393CC0FCD2490700D30CC000D504C01C
:10292000890002D30280801C002900D5027030BCCF
:10293000704700000022E5E710B402E0401C491C8B
:10294000521E002A09D00B7804789C42F6D002D29D
:102950000020C04302E0012000E0002010BC7047CE
:10296000E0B540226B461A72C9B289B2019100905B
:10297000012302AA7821012002F06AF807BD01B5FF
:1029800084B0C9B2012903D140206946087202E02F
:102990000020694608720120019004A800900123DC
:1029A00002AA7821012002F053F805B000BDE0B57D
:1029B000002069464872FF20694608720120019094
:1029C00002A80090012302AA521C7821012001F0E4
:1029D000E2FF002801D1002000E001200EBD80B5FB
:1029E000D2B2C9B2C0B200F0BEFA00F008FB01BD1D
:1029F000F3B581B068460079171A7F1C68466946AE
:102A0000097A591A491C01700025089E13E032000A
:102A1000D2B26846007A4119C9B2684600790019F5
:102A2000C0B200F0A0FA641C20003900C0B2C9B2E4
:102A30008842ECD36D1C280069460978C0B28842F0
:102A400001D20024F0E700F0DAFAF7BDF0B587B064
:102A500000250024D2B2C0B2121A0192DBB2C9B270
:102A60005A1A0092C0B20490C9B203910198012889
:102A700002DB012005900BE00198002802D1002024
:102A8000059005E00020C043059001984142019166
:102A90000098012801DB012709E00098002801D1F6
:102AA000002704E00027FF4300984142009100986E
:102AB0000199884202DA0198029001E000980290A0
:102AC00000261EE00CA8027803980100C9B2049801
:102AD000C0B200F048FA01982D1800982418029806
:102AE000A84205DA02982D1A049805994018049016
:102AF0000298A04204DA0298241A0398C01903909D
:102B0000761C0298401CB6B2B042DBDA00F077FACD
:102B100007B0F0BDF1B582B00F0016001D00089C93
:102B20002000C0B200903B00DBB23200D2B23900CC
:102B3000C9B26846007AFFF789FF2000C0B2009052
:102B40002B00DBB26846027A3900C9B26846007AC7
:102B5000FFF77CFF2000C0B200902B00DBB23200F8
:102B6000D2B22900C9B26846007AFFF76FFFE4B21B
:102B700000942B00DBB23200D2B23900C9B230006F
:102B8000C0B2FFF763FFF7BD10B582B0049C00949C
:102B9000DBB2D2B2C9B2C0B2FFF72AFF13BDF8B59B
:102BA00005000C001700069E3200D2B2684600787D
:102BB0002118C9B2E819C0B200F0D5F93200D2B27A
:102BC000684600782118C9B2E81BC0B200F0CBF902
:102BD0003200D2B268460078211AC9B2E819C0B2F0
:102BE00000F0C1F93200D2B268460078211AC9B2A9
:102BF000E81BC0B200F0B7F93200D2B2E119C9B295
:102C0000684600782818C0B200F0ADF93200D2B2A0
:102C1000E119C9B268460078281AC0B200F0A3F9D9
:102C20003200D2B2E11BC9B2684600782818C0B29F
:102C300000F099F93200D2B2E11BC9B268460078BF
:102C4000281AC0B200F08FF9F1BDF3B581B01700BA
:102C50000025DBB21E000320DBB202214B43C41A65
:102C600006E0A81B042148430A302418761E6D1C78
:102C7000AE4215DB3800C0B2009030000300DBB27A
:102C800028000200D2B26846017A68460079FFF750
:102C900086FF002CE5D504206843801D2418E6E754
:102CA00000F0ADF9F7BDF1B582B00F000020694624
:102CB0000870002500246846203A02706846007AB1
:102CC000802803DB002069460872BF1CDBB2102B92
:102CD0003BD1002500E06D1CEDB2102D00DB84E03F
:102CE00008A80078002808D04148694609781022D1
:102CF0005143EDB24919465C08E03D486946097800
:102D000010225143EDB24919405CC643002409E04A
:102D100000227919C9B26846007A0019C0B200F0E1
:102D200022F9641CE4B2082CD5DA8020204131005D
:102D3000C9B20142ECD001227919C9B26846007AC1
:102D40000019C0B200F00FF9EBE7DBB2082B02D09C
:102D5000DBB2062B48D1DBB2082B04D100250820BA
:102D60006946487003E0012507206946487000E085
:102D70006D1C280069464978C0B2884235D208A83F
:102D80000078002808D0384869460978082251435D
:102D90004018EDB2465D08E03348694609780822DC
:102DA00051434018EDB2405DC643002409E00022C3
:102DB0007919C9B26846007A0019C0B200F0D3F898
:102DC000641CE4B2062CD3DA802020413100C9B261
:102DD0000142ECD001227919C9B26846007A001983
:102DE000C0B200F0C0F8EBE701E000F008F9F7BD71
:102DF000E8DF0008FEB504000E0000256846007AF2
:102E0000102806D16846007A022100F011FA070066
:102E100023E06846007A082803D06846007A06282E
:102E200001D10627F4E71DE008A800780090684665
:102E3000037A0198EDB2425D3100C9B22000C0B200
:102E4000FFF731FFE419E4B2FFB2E019812803DB98
:102E500000246846007A36186D1C0198EDB2405D7A
:102E60000028E1D1F7BD0000D8E50008FFB581B02A
:102E7000002700E07F1C38006946097CC0B2884208
:102E800052D2002600E0761C6846007BC01D082157
:102E900000F0CEF9F6B28642ECDA0BA800780028F2
:102EA0000CD0FFB26846007BC01D082100F0C0F9BD
:102EB0007843F6B280190A990D5C0CE0FFB26846BF
:102EC000007BC01D082100F0B3F97843F6B28019E9
:102ED0000A99085CC54300240EE000226846007A87
:102EE000C119C9B26846007908237343C018001994
:102EF000C0B200F038F8641CE4B2082CC3DA8020B9
:102F000020412900C9B20142E7D001226846007A77
:102F1000C119C9B26846007908237343C018001963
:102F2000C0B200F020F8E6E700F069F805B0F0BDA7
:102F300000B583B0D2B20192AD4A00921723282285
:102F4000C9B2C0B2FFF792FF07BD80B500218D2046
:102F5000FFF715FD00211020FFF711FD0021AE2025
:102F6000FFF70DFD01BDF8B506000C003F20041B66
:102F70007F20861BD2B2002A20D0E4B22000082194
:102F800000F056F980214843F6B28019994D00901F
:102F9000E4B22000082100F04BF980214843F6B24A
:102FA000801994490E5C0127E4B22000082100F04A
:102FB0003FF98F40374300982F541FE0E4B22000C0
:102FC000082100F035F980214843F6B28019894D77
:102FD0000090E4B22000082100F02AF98021484343
:102FE000F6B2801983490E5C0127E4B22000082163
:102FF00000F01EF98F40BE4300982E54F1BD80B5FD
:103000007D480078002801D000F001F801BDF8B536
:103010000025002741E0641E009800B2210009B29B
:1030200088420BDA734836B224B23119405C7349D6
:1030300036B224B23219895C8842ECD0009D2DB2A0
:10304000AD1C002138005038C0B2FFF798FC0021B9
:103050002807000FFFF793FC00212A00D2B21209C3
:1030600010201043C0B2FFF78AFC641C009800B225
:10307000211AC9B25F4836B2009A12B2B21880184B
:10308000FFF76EFC80225B4836B281195B4836B28E
:1030900084192000FFF7F8FB7F1C3FB2082F23DACA
:1030A00080267E4356480078002804D000206946D8
:1030B00008807F24C2E7002400E0641C24B2802C36
:1030C0000DDA4C4836B224B23119405C4B4936B265
:1030D00024B23219895C8842EFD06846048024B259
:1030E000802CD9D07F2497E7002045490870F1BD96
:1030F00010B5C0B2002801D0FF2200E000228021DC
:10310000C900D2B23B4C2000FFF7ECFBFFF777FF82
:1031100010BD10B50021AE20FFF731FC002140208A
:10312000FFF72DFC0021B020FFF729FC00218120B2
:10313000FFF725FC0021FF20FFF721FC0021A12043
:10314000FFF71DFC0021A620FFF719FC0021A82095
:10315000FFF715FC00213F20FFF711FC0021AD20F7
:10316000FFF70DFC00218B20FFF709FC0021322026
:10317000FFF705FC0021C820FFF701FC0021D32048
:10318000FFF7FDFB00210020FFF7F9FB0021D52010
:10319000FFF7F5FB00218020FFF7F1FB0021D9208C
:1031A000FFF7EDFB00211F20FFF7E9FB0021DA20EC
:1031B000FFF7E5FB00211220FFF7E1FB0021DB20F8
:1031C000FFF7DDFB00214020FFF7D9FB0021AF20F6
:1031D000FFF7D5FB8021C9000022064C2000FFF735
:1031E00081FB01200649087000200349087010BDCA
:1031F0006EEC0008A40E002087010020A41200201D
:1032000086010020F446002804D4494200F013F857
:10321000404260474042002905D45FD000F00BF8DF
:10322000404249426047494200F005F84942604740
:1032300003460B43E6D40022030A8B420BD2030958
:103240008B4219D243088B422ED2411A00D201463A
:10325000524110467047FF2209023FD012068B42AE
:1032600005D3121209028B4201D31212090203097B
:103270008B4219D300E0090AC3098B4201D3CB0169
:10328000C01A524183098B4201D38B01C01A5241AB
:1032900043098B4201D34B01C01A524103098B42AF
:1032A00001D30B01C01A5241C3088B4201D3CB009A
:1032B000C01A524183088B4201D38B00C01A52417D
:1032C00043088B4201D34B00C01A5241884200D3BD
:1032D000401A5241CFD201461046704708B503F05C
:1032E00069FA08BD0CB41CB5040004A80190009450
:1032F00001AB0A006946084878441C3003F05CFAC8
:103300000021009A1170002801D40098001B02B01F
:10331000019910BC03B008474F080000010000E00D
:10332000491C0A78002AFBD1081A704700B5010031
:103330009348C9B2002908D002290AD007D304292A
:103340000BD008D305290AD00AE08E4808E08E4841
:1033500006E08E4804E08E4802E08E4800E08E4889
:1033600000BD00B501008648C9B2002906D0022977
:1033700008D005D3042909D006D308E0824806E026
:10338000864804E0864802E0864800E0864800BDA2
:10339000F8B504000D000026002C01D0002D01D14D
:1033A000002061E02078062801DB01202070607891
:1033B000052801DB00206070182100227B4F3800B7
:1033C000FFF790FA2078002803D100F07AFC2870EB
:1033D00001E0207828702878744908706078734973
:1033E0004870724844607148007804280AD16F48D8
:1033F0004078042801D1012000E00020C0B204F090
:103400005DF931E0287801F065FD2878022802D0C6
:103410002878032826D16078012804D020D30328F7
:1034200017D00DD31CE0E0786422424392B2A0781A
:10343000FA218900414389B2287804F0E8FF0FE0BF
:10344000A078FA218900414389B2287804F0F4FF7A
:1034500006E020796421414389B2287805F00EF80E
:103460000126FFE73000C0B2F2BD80B54F480078BA
:10347000022803D04D480078032802D105F021F836
:10348000FFE701BD10B549480078022803D047483E
:103490000078032828D1464C00F097FC208100F0EA
:1034A00019FD608100F0FCFCA08102222100942023
:1034B00002F0C8F90222A11C962002F0C3F90222F0
:1034C000A11D982002F0BEF90222211D9A2002F0CF
:1034D000B9F921000E31242001F02CFB21000F311D
:1034E000252001F027FB49E030480078052845D128
:1034F0002F4C01210F2001F035FB208101211020EC
:1035000001F030FB2080208900F0BCFA0022B44B8F
:1035100000F0C8FA0022B34B05F03AF80022B24B93
:1035200005F036F80022B14B05F0F4F805F0CCF9BF
:103530002081208800F0A6FA0022A94B00F0B2FA00
:103540000022A84B05F024F80022A94B05F020F832
:103550000022A64B05F0DEF805F0B6F92080022225
:10356000A11C962002F06EF90222A11D982002F003
:1035700069F90222211D9A2002F064F910BD0000B1
:1035800010FB000818FB000820FB000828FB0008BF
:1035900030FB000838FB000840FB000848FB00082F
:1035A00050FB000858FB000860FB0008CC2C0020F2
:1035B000D42C0020F0B583B004000E008D480078B4
:1035C000022804D08B480078032800D0A0E08A4D60
:1035D000A41C88484078FFF7C4FE0700854800789F
:1035E000FFF7A4FE3B00020084493000FFF77AFE9B
:1035F00001200090082332002100C9B20020FFF70B
:10360000F9FB0A342B892A88AA493000FFF76AFEA1
:1036100001200090082332002100C9B20020FFF7EA
:10362000E9FB0A34AB886A88A3493000FFF75AFEE9
:1036300001200090082332002100C9B20020FFF7CA
:10364000D9FB0A340C20285E012802DB0C20285EFE
:1036500002E00C20295E48420621695E012902DB56
:1036600006216F5E02E00621695E4F420A21FFF7E4
:10367000DFFD01910C20285E0A21FFF7D9FD0090A3
:1036800038000A21FFF7D4FD0B001F000620285E3A
:103690000A21FFF7CDFD02003B0088493000FFF70B
:1036A00021FE01200090082332002100C9B2002031
:1036B000FFF7A0FB022301222100891CC9B233209D
:1036C000FFF7C3FA022301222100891CC9B2752029
:1036D000FFF7BBFA0A34E87B002801D078A300E0AA
:1036E00078A3A87B002801D075A200E075A26889A4
:1036F000009075493000FFF7F5FD01200090082388
:1037000032002100C9B20020FFF774FB0A3463E0E5
:103710003848007804285FD03648007805285BD107
:10372000354DA41C69493000FFF7DCFD01200090F5
:10373000082332002100C9B20020FFF75BFB0A34E6
:103740002B892A885B493000FFF7CCFD01200090CF
:10375000082332002100C9B20020FFF74BFB0A34D6
:10376000AB886A8854493000FFF7BCFD0120009007
:10377000082332002100C9B20020FFF73BFB0A34C6
:103780000620285E012802DB0620285E02E00620D3
:10379000295E48420A21FFF74BFD0B001F0006205F
:1037A000285E0A21FFF744FD02003B0089493000F2
:1037B000FFF798FD01200090082332002100C9B2D4
:1037C0000020FFF717FB022301222100891CC9B248
:1037D0003320FFF73AFA0A342000C0B2FEBD0000E1
:1037E0000000B04000C8A94000002A400000E03FAF
:1037F00000001C40CC2C0020D42C0020C8F700086E
:10380000F8B504000F0000267348406800284FD028
:1038100071488078241AE4B2042C49DA6E48406872
:10382000E4B2065D6C48406845786C493800FFF7A3
:1038300059FDE4B2002C05D0022C17D00CD3032C78
:1038400021D035E03000C0B2FFF770FD02006449BE
:103850003800FFF747FD2BE03000C0B2FFF781FDD5
:10386000020060493800FFF73DFD21E0EDB2012D77
:1038700002D0EDB2022D05D1F6B232005A4938001D
:10388000FFF730FD14E0EDB2012D11D1F6B230009A
:103890000A21FFF7CDFC0B001C00F6B230000A2114
:1038A000FFF7C6FC0200230050493800FFF71AFD5D
:1038B000F1BD0000DCF70008F0F70008F0F60008A2
:1038C000206F6E006F66660008F7000820F700089A
:1038D00000B500214049496800297AD03E498978DD
:1038E000401AC0B2052874DA3B494968C0B20918C9
:1038F000394A52685278C0B2002806D0022842D015
:103900000CD304285AD04DD363E00878401C0870CB
:103910000878062801DB002008705AE00878401C6F
:1039200008700878052801DB002008700878012855
:1039300002D002280DD019E0152027494968887067
:103940001E2025494968C870142023494968087118
:1039500018E0152020494968887000201E494968F0
:10396000C87000201C49496808710BE000201A4902
:1039700049688870002018494968C87014201649A1
:103980004968087125E0D2B2012A02D0D2B2022AD7
:1039900007D10878401C08700878302801DB052022
:1039A000087016E0D2B2012A07D10878401C0870CE
:1039B0000878232801DB0A2008700AE0D2B2012A25
:1039C00007D10878401C08700878232801DB002004
:1039D000087000BD88FA0008CC2C002074F900089B
:1039E00094FA0008A0FA000884F9000894F9000885
:1039F0007047F8B40168421843685908511800919B
:103A00008168DB0701D54B46C918009B9A4202D159
:103A10000C30F2BC70471378521C032403261E405E
:103A200002D11678F61C521C1D090F2D07D11578EE
:103A30000F35521C03E01778521C0F70491C761E7C
:103A4000F9D1002DE1D01678521C9B081C40032CA4
:103A500001D11478521C2302F3185C420B19AD1CDF
:103A6000D3D01C785B1C0C70491C6D1ECDD0F8E7C0
:103A7000010009D5F446404200F006F80122D207C1
:103A800011436047010000BF42221201D21E0042D2
:103A900007D002D4521E0018FCD5C10A40051205F9
:103AA00089187047F0B40E005E400125ED072E40E6
:103AB000B446AE0ADF184C18F4423BD2F74241D26A
:103AC000640D43D07F0D38D0E41BC902DB022943CB
:103AD0002B43CF0ADB0A0600B61A9F4104D2641EAC
:103AE000B6197F41B6185F416812800D241800187E
:103AF000844222DAE80C0021B6197F41B61A9F41B0
:103B000002D2B6185F413F1C40414941F4D3241C06
:103B100021DD2405B6197F41B61A9F4105D33743ED
:103B2000C60737430026012F704161416646314385
:103B3000F0BC7047FCD1F74205D20020C1434905D3
:103B40004908F3E704D00020C143F1E77F0DFAD024
:103B500000206146ECE72442FAD1401C61410F038A
:103B6000F6D30020E2E70268531C0360117070472F
:103B700000B580221206914201D3002006E0174AC8
:103B800012684260016000210172012000BD1349EA
:103B9000096841600121017270470021017270477C
:103BA00000B5017A002901D100200DE041680068CC
:103BB00008180A490968081A8021C905884201D2F3
:103BC000012000E00020C0B200BD00B5007A00284E
:103BD00001D0012000E00020C0B200BD102D002067
:103BE000F8B50400A4B29448844201DB934850E045
:103BF000A4B2002C00D10124A4B264206043FFF7DA
:103C000037FF00228E4B04F0C3FC06000F008A48E9
:103C1000A4B2001BFFF72CFF02000B00300039009C
:103C2000FFF740FF0022874BFFF73CFF04F075FED3
:103C30000022964BFFF736FF95A20CCA04F06AFDEE
:103C400004000D0000207E4922002B00FFF72AFF10
:103C500091A20CCA04F05EFD04000D0022002B00AE
:103C60005B005B0800209A4904F092FC0022A64BFE
:103C700004F050FD04F028FE060020002900002278
:103C8000002304F04FFE02D2300000B24642300062
:103C900000B2F2BD80B50100C9B20B2000F030FFC8
:103CA00002BD80B5C0B206280ADAC9B2002901D126
:103CB000012100E00021C9B2C01CC0B200F020FF09
:103CC00001BD00B501209148008C914980B2914915
:103CD000411AFF229032914201D203200DE080B2BE
:103CE00096214900884201DA022006E080B28A4922
:103CF000884201DB012000E00120C0B200BD80B598
:103D0000824A5279032A03D0804A5279022A13D177
:103D1000C0B2022810DAC0B2002801D1242000E08D
:103D200025207E4AC9B2002901D07DA200E07DA2F3
:103D3000C9B2C0B200F0E4FE01BD80B500216A4600
:103D400011707249497903290DD1C0B2022815DAE0
:103D5000C0B2002801D1242000E025206946C0B26D
:103D600000F0E8FE0AE069494979022906D1C0B2AB
:103D7000002803D16946242000F0DCFE6846007864
:103D800002BD80B56149497903291DD180B26649D8
:103D9000884202DA8022120211E080B2634988422E
:103DA00001DB00220BE080B26149414380208001A9
:103DB0000818800B5F49081A801C820892B292B2E0
:103DC0000021202001F09EF801BD10B50020002444
:103DD0004E484079032811D10121222000F0C2FE73
:103DE000010089B2544A91421DD080B253494143E7
:103DF00008005221FFF71FFA040014E043484079FD
:103E0000022810D10121222000F0ACFE010089B26D
:103E1000494A914207D080B24849414308005221A3
:103E2000FFF709FA040080204002844200D3424C8C
:103E3000200080B210BD0000FF0F00006FFEFFFFEA
:103E40000000F03F0080474038B5040000252F48AF
:103E50004079032817D10121212000F083FE0100C1
:103E600089B2354A91420BD080B23549884200DB95
:103E7000344880B22621C9434143334A89180D0989
:103E8000002C00D02080280080B232BD00A4AF40BA
:103E900083DBB5DCE1796B3F66666666661271C0EE
:103EA00010B50020FA241948407903280CD10021CC
:103EB000212000F057FE010089B21F4A914203D031
:103EC00080B2FFF78DFE0400200000B210BD00009C
:103ED0000000244080B51D480C494979032904D1CC
:103EE0000021232000F03EFE07E00849497902291D
:103EF00003D10021232000F035FE80B2144988420E
:103F000000DB124880B202BD0000E03F8C2C002094
:103F1000E8F40008D107000001100000C8F500080F
:103F20004F4E00004F464600ED2C0000CEBB000077
:103F3000D3E2000097990200FFFF00003A0400005E
:103F4000E30C0000E20C000088F601000F270000DF
:103F500010270000F0B540B2002821D5864B40B2B2
:103F60000207120F083A920804246243824C40B2BE
:103F700005072D0F083DAD08042675436459FF253C
:103F80008607B60F08277E43B540AC438901C9B206
:103F90008007800F082568438140214399501AE02B
:103FA0009C4A40B2830804246343D258FF23840709
:103FB000A40F08256C43A3409A438901C9B2830723
:103FC0009B0F0824634399401143924A40B28008F2
:103FD000042358431150F0BD00B5BFF34F8F8E48F6
:103FE000AB490860BFF34F8FFEE780B5411E8022CA
:103FF0005204914201D301200EE0401EA549086001
:1040000003210020C043FFF7A5FF0020A24908605C
:104010000720A2490860002002BD80B5A0480068C2
:10402000A049096881F308888047FEE780B59E486B
:1040300000689E4988420FD0002006E000219C4A7B
:10404000C0B204234343D150401CC0B20428F5DB66
:104050009648954908600EE095480068401C9449D0
:104060000860934840689349884204D100209049F1
:104070004860FFF7D2FF01BD00B58BB0684604F081
:1040800083FD04F069FC684604F07EFD902004F096
:104090000BFD002004F02CFD012004F08BFF01201B
:1040A00004F09CFF012004F0C1FC712004F012FF19
:1040B0000028FAD0032004F0D9FC04F0EFFC0C280F
:1040C000FBD1684604F060FD01218020400504F02A
:1040D000BDFE0BB000BD00B58BB0684604F054FDCA
:1040E0000198BB4988420CD30198C008FA21890085
:1040F000FFF7A1F8FFF779FF0420C04305F08EF821
:1041000006E00198FA218900FFF795F8FFF76DFFA7
:104110000BB000BD10B5C9B2002901D0012200E0EA
:104120000022D2B2012103001B071B0F994089B264
:10413000B74B80B200128007800F042460431858E8
:1041400005F0BCF910BD80B5012102001207120F65
:10415000914089B2AE4A80B200128007800F0423DA
:104160005843105805F032F9012801D1012000E030
:104170000020C0B202BD00001CED00E07CB50500CF
:104180000C001E00012029000907090F884080B299
:104190000090684604716846C271E4B2012C28D1CF
:1041A0000020694688710320694648713100C9B210
:1041B000280080B2FFF7AEFF69469548ADB22A12DB
:1041C0009207920F04235A43805805F04FF8E4B247
:1041D000022C0DD13200D2B22907090F8C48ADB2A2
:1041E0002B129B079B0F04246343C05805F0E2F990
:1041F00073BDE4B2002CDFD0E4B2032CDCD0E4B217
:10420000022C06D100206946887103206946487156
:10421000D2E7EDE700E400E00400FA0510B584B051
:1042200004007C4800680090B64803C801AA03C295
:10423000083A002001A908710C2001A94871012049
:1042400001A98871002301220021200080B2FFF71C
:1042500095FF20000107090FA4B220128007800FEC
:1042600005F050FA01202107090F884080B2019023
:1042700001A805F0C1FA07206946087003206946C5
:104280004870012069468870684604F081FF1FBDB0
:104290000CED00E014E000E018E000E010E000E0C9
:1042A00004C8FF1F00C8FF1F980100206F8DAA558A
:1042B00088010020AA555A5A10B5C0B2002801D171
:1042C0000B2400E00C24C0B2002802D1FF20801C87
:1042D00001E081204000C9B2002903D002291DD08D
:1042E0000ED328E000230022012180B2FFF746FF11
:1042F000002300220021200080B2FFF73FFF1AE0D8
:1043000000230022002180B2FFF738FF00230022A3
:104310000021200080B2FFF731FF0CE000230022D3
:10432000002180B2FFF72AFF012300220121200093
:1043300080B2FFF723FF10BD80B501210120FFF7F8
:10434000BBFF00210020FFF7B7FF01BD80B50221B0
:104350000120FFF7B1FF01210020FFF7ADFF01BDF4
:1043600080B501210120FFF7A7FF01210020FFF701
:10437000A3FF01BD80B5002300220021FF20801C87
:10438000FFF7FCFE00230022002181204000FFF700
:10439000F5FE01BD80B57148006880210904014324
:1043A0006E48016000218020000404F04FFD0023CE
:1043B000002200210B20FFF7E1FE00230022002154
:1043C0000C20FFF7DBFEFFF7D5FFFFF7B5FF01BDC0
:1043D00001366E0180B580B26149884202D1FFF793
:1043E000ABFF0CE080B25F49884202D1FFF7AEFF1D
:1043F00005E080B25C49884201D1FFF7B1FF80201F
:1044000040030100481E0029FBD1012002BD00002D
:104410000000002094FB000800B55448006801210A
:104420000143524801605248AF490860AF480068F4
:10443000B021C9000143AD480160B4480068802143
:1044400089000143B1480160B1480068C00705D543
:10445000AF48006802210143AD480160AC480068E4
:10446000C007FBD4AB48006801218843A949086014
:10447000A7480068802109060143A5480160A448B7
:1044800000680028FBD4B348006806210143B14806
:104490000160A0480068B04901439E480160AF48F0
:1044A000AF490860AF4800688021C9030143AD48A7
:1044B0000160974800680121014395480160AA48BE
:1044C0000088AA49088000BDA94A10609148006888
:1044D000042290438F4A1060A148006804220243DE
:1044E0009F48026089B2A3480160A348A3490860BD
:1044F0000220A34908607D480068012101437B48F0
:1045000001607047C8FA000800B5814800681021B2
:1045100001437F4801607E480068C006FBD47348B1
:104520000068012188437149086000BD38B5050065
:104530000C00FFF7E9FFE4B2610089B22800FFF741
:10454000C3FF7348006804210143714801608D482E
:1045500000688007FBD5FFF7D7FF31BD1010024080
:104560008813000028230000E02E000014100240F1
:1045700040240140F6B583B0020000206946C8809F
:10458000764B002075496846007B062802DB052033
:1045900069460873684601216B461B7B9940C91C1C
:1045A000017168460179802080021043FFF7BEFF49
:1045B00000206946C880694B002068490025002218
:1045C00000260024012461E06B4EE4B20427674317
:1045D000F65B92196E46F788BC46674FE4B2042634
:1045E0006643BE5B6746B74208D26F46BC46624F21
:1045F000E4B204266643BE5B6746FE805E4EE4B2CC
:1046000004276743F65B1F00BFB2BE4204D25A4B79
:10461000E4B2042666439B5B574EB446E4B20227DD
:104620006743022677436646F6197688AD19070078
:104630000097514EB446E4B20227674302267743FF
:104640006646F6197688009FBFB2B74207D24A483D
:10465000E4B20226664302277E4380194088464E14
:10466000B446E4B202276743022677436646F6194A
:1046700076880F00BFB2BE4207D23F49E4B202269D
:10468000664302277E4389194988641C26006F46C9
:104690003F79F6B2BE4297D39BB2D21A6B46DB8803
:1046A000D41A6A46127BD44089B2691A80B20E1AB3
:1046B0006846007BC6406846007C002810D02B4826
:1046C00001888F484843B6B23100FEF7B4FD0600BA
:1046D000A4B2B6B2744320008A49FEF7ACFD0400D0
:1046E000200080B205B0F0BD10000240080002407A
:1046F00080B505F0B4FAFFF74DFE01BDD149096858
:10470000012282400A43CF480260704718100240DD
:10471000082401400C24014000B50020C949096863
:10472000002916D0BFF34F8FBFF36F8F72B6BFF360
:104730004F8FBFF36F8FC34800680021C14A1160DB
:10474000BFF34F8FBFF36F8F62B6BFF34F8FBFF3CF
:104750006F8F00BD1424014003300000FFFF0000F4
:104760000024014008270140BAF7FF1F1C2D00203C
:10477000282401400C000240B4280020140002400C
:10478000040002400000024010B58AB0040003A8F3
:104790001C21FEF7CFF8AC4803C801AA03C2083AAF
:1047A000AA480068009001218020C00204F0FAFAB3
:1047B000E00704D501218020800304F047FBA00717
:1047C00004D501218020C00304F040FB022001A990
:1047D0000871012001A98871032001A948710020F6
:1047E00001A9C871002006900020049000200590C7
:1047F0000020079000200890002009906846C078AB
:104800000007000F6946C870092069460870032038
:104810006946487068468078F021014001200843CD
:1048200069468870684680780007000F3021014390
:10483000684681706846C078F02101406846C170C2
:1048400000980390A0072AD58020C000019001A9FC
:10485000AA4804F00BFD80200001019001A9A7489F
:1048600004F004FD01220A21A44804F0A3FE012261
:104870000B21A24804F09EFEAD4805F049FA002045
:1048800007906846C0780007000F50210143684632
:10489000C1700098039003A9A54805F05EFAE007EF
:1048A0001FD54020019001A9944804F0DFFC80202E
:1048B000019001A9914804F0D9FC012206218F48FA
:1048C00004F078FE012207218C4804F073FEA3480F
:1048D00005F01EFA03A9A14805F03FFA0120A049FE
:1048E0000870E00703D501219C4805F0B9FAA0073C
:1048F00003D501218E4805F0B3FA0AB010BD0000BF
:10490000E40C0000FF0F000000B580225202836912
:104910000B408B4205D013005A1E002BF7D100200C
:1049200000E0012000BDF8B504000E0017000025CE
:1049300005E0ADB2715D200005F01EFB6D1C280086
:10494000390080B289B2884207D202212000FFF7E5
:10495000DBFF0028EDD1002000E00120F2BDF8B51A
:1049600004000E001700002505E0200005F016FBEE
:10497000ADB270556D1C2800390080B289B28842F2
:1049800007D204212000FFF7BFFF0028EDD100204F
:1049900000E00120F2BDF8B50F0016001D00C0B206
:1049A000002801D1624C00E06C4C6C48844205D177
:1049B0006B480078002801D1002041E08020800170
:1049C000009000232A00D2B2390089B2200005F0FD
:1049D00079FAEDB22A0092B231002000FFF7A3FF6E
:1049E000002801D100202BE040212000FFF78CFFA0
:1049F000002801D1002023E0079D90208001009035
:104A000080239B042A00D2B2390089B2200005F02D
:104A100059FA2A0092B206992000FFF7A0FF002859
:104A200001D100200CE020212000FFF76DFF0028BD
:104A300001D1002004E02021200005F0BFFA012070
:104A4000F2BD0000142D0020D0FA000898FB0008E9
:104A5000F8B50F0016001D00C0B2002801D1344C7B
:104A600000E03E4C3D48844205D13D480078002896
:104A700001D1002041E080208001009080235B0470
:104A80002A00D2B2390089B2200005F01BFAEDB23B
:104A90002A0092B231002000FFF745FF002801D123
:104AA00000202AE080212000FFF72EFF002801D1FE
:104AB000002022E0079D0020009080239B042A0014
:104AC000D2B2390089B2200005F0FCF92A0092B276
:104AD00006992000FFF727FF002801D100200CE0F5
:104AE00020212000FFF710FF002801D1002004E062
:104AF0002021200005F062FA0120F2BD00040048E8
:104B000080B5C0B2262807DAA44AC0B204234343C2
:104B1000D2189278012A01D0002008E0C9B29F4A39
:104B2000C0B204235843105AFFF7F4FA012002BD23
:104B30000058004010B50C00C0B2262801DB002050
:104B40000AE0002C07D09549C0B204225043085A0D
:104B5000FFF7F9FA2070012010BD0000005400405A
:104B60001E2D002010B50C00C0B2262807DA8B4994
:104B7000C0B20422424389188978042901D0CC4864
:104B800014E08649C0B204225043085A05F049FB9C
:104B9000C0B2202809DA2200D207D20F0521012352
:104BA00083401800FFF7E6FC00E0C14810BD80B567
:104BB000C748D149486000F0F6F901BDCF4A02600C
:104BC00080200001086001207047CD4B03608020E9
:104BD00000010880032010800120704710B50400F8
:104BE00080200005201A80218902884201D30020FC
:104BF00009E072B604F00FFA200004F01FFA04F086
:104C000016FA62B6012010BDF8B506000F001400B8
:104C1000002F02D0A4B2002C01D1002032E080206D
:104C20000005301A80218902884209D2A4B23019C5
:104C3000401E80210905401A80218902884201D343
:104C400000201FE0A4B2641C641072B604F0E3F903
:104C5000342004F05BFA00250AE0ADB2022068437C
:104C6000395AADB202206843301804F017FA6D1CAF
:104C70002800210080B289B28842EED304F0D7F92F
:104C800062B60120F2BD80B50121012005F0EAFAEB
:104C900001BD00B5002802D0B74909880180042071
:104CA00000BD30B583B000250121012004F0A8F833
:104CB00001218020800204F075F80121802080000D
:104CC00004F09EF8012003F07BFE03206946087182
:104CD0008020009000206946887103206946487151
:104CE00001206946C8716946A448006804F0BEFA0C
:104CF000FFF792FB002409E0E4B2042C05DB00225C
:104D000003218020FFF736FC2D18641CE4B2142C1C
:104D1000F2DB28099849088037BD30B589B0040016
:104D20001E48E4B204216143455AE4B2202C32D13A
:104D300001218020400004F089F8684605F06AFBF4
:104D40000020694608800020694608818C4801904F
:104D500069468C4805F0D2FA03A805F0F7FC6020FC
:104D600069468881012003A9488003A9854805F088
:104D7000F9FB8022120200212000C0B200F0C2F82C
:104D8000042300220221280080B2FFF7F7F9012155
:104D90007C4805F095FB09B030BD0000442B002095
:104DA000F8B50600784D2627F6B2002E01D0202453
:104DB00000E00024F6B2002E13D10121012004F0FE
:104DC0001FF80121E020000303F0ECFF0121802007
:104DD000800004F015F86D480068012101436B481C
:104DE00001600BE0E4B204206043281880780528B5
:104DF00003D12000C0B2FFF790FF641C20003900EF
:104E0000C0B2C9B288424CD2E4B204206043281830
:104E1000807801280DD1E4B2042060432818C378BB
:104E200000220121E4B204206043285AFFF7A6F9CA
:104E3000E3E7E4B20420604328188078022806D112
:104E4000E4B204206043285AFFF7E8F9D5E7E4B25A
:104E5000042060432818807803280DD1E4B2042090
:104E600060432818C37800220021E4B20420604384
:104E7000285AFFF783F9C0E7E4B2042060432818FA
:104E800080780428AED1E4B2042060432818C378A7
:104E900000220321E4B204206043285AFFF76EF990
:104EA000ABE7F6B2002E01D1FFF7B6FAF1BD000074
:104EB000FFFF000080B50020FFF7EBFE0100C9B244
:104EC000314805F0A5F80020FFF76AFF01BD00009A
:104ED000AA555A5A10B504000020FFF7DAFE220046
:104EE000D2B20100C9B2284805F04AF90120FFF703
:104EF00057FF012010BD00008801002000F80108C4
:104F000000E0010810B5C0B2262807DA1E4BC0B277
:104F1000042444431B199B78052B01D0002012E088
:104F2000C0B220280ED192B219485043C40B0022BF
:104F3000C9B289B2134805F079FAA4B22100114828
:104F400005F015FC012010BD80B500201149087046
:104F5000FFF76CF8FFF790F8FFF7BDF8FFF7A1FE39
:104F6000FFF7A8FF0320FFF70FFCFFF703FA00206D
:104F70000949086001BD00008401002000000020F4
:104F8000C309000000200040442B002034100240E0
:104F9000C40900001E2D0020102D002080B505F052
:104FA00017FC002002BD80B5FFF716F801BDE02E0A
:104FB00010B582B0022269469E4800F043FC0028EA
:104FC00001D1002070E06846007800026946497807
:104FD000441804226946984800F034FC002801D1A6
:104FE000002061E068460078000269464978401870
:104FF00000046946897809026A46D27889184018FF
:10500000400040088D49098C582904D062291DD0E0
:10501000632928D034E0A4B22100162904D0232922
:1050200011D060290BD011E08549884203D10021BD
:10503000844A117002E00121824A117006E00221C7
:10504000804A117002E004217E4A1170A4B2162C2D
:1050500009D17B49884203D100217A4A117002E0CC
:105060000121784A1170A4B2162C09D174498842E2
:1050700003D100207349087002E0012071490870D3
:1050800070480078012807D06C484078062803DA79
:105090006A4840786B4908706A480078062802DB45
:1050A000002068490870012016BDF2B50022A54B0A
:1050B00064490978062901DBFF2041E0A249614CDF
:1050C000247808256C43095900240DE0E4B2022538
:1050D00065434D5B451B2E001F00B6B2BFB2BE42FA
:1050E00001D222002B00641C2700974DAC46554D81
:1050F0002E7808256E436546AD192D79FFB2AF4273
:105100000DD20500E4B2022666438E5BADB2B54215
:10511000DCD2E4B2022565434D5B2D1ADBE7009833
:1051200000280BD08848474909780823594340583C
:10513000D2B202215143405A009908801000C0B2F7
:10514000F2BD80B53D494969002902D03B49496912
:10515000884701BD80B5A8480078002801D001200B
:1051600001E000F0D9FB02BD04B582B0334AD27829
:10517000002A08D0314A9269002A04D0C9B22F4AC5
:105180009269904722E0C9B20A0092B20100C020A1
:10519000400000F087FB002801D1002016E001222A
:1051A00002A9C820400000F07DFB002801D10020AA
:1051B0000CE008206946087001226946902000F042
:1051C00071FB002801D1002000E001200EBDF8B5E0
:1051D00005000C0017001E001848C078002812D0E7
:1051E0001648C06900280ED028001449C9698847AC
:1051F000002E00D03070C0B2002801D0012000E0A5
:105200000020C0B214E0E4B2220092B22900C8200B
:10521000400000F017FB002801D1002008E0002E1C
:1052200005D02878FFB2B84200D1002434700120A4
:10523000F2BD000087D0000089D00000482C00207B
:10524000443322116C2C0020F8B584B017000026DE
:105250000A9DEDB2002D03D03A78002A00D1FF2636
:105260003200D2B2C9B2FFF77FFF002801D100207F
:1052700052E0002F03D06846007C002805D196201C
:105280004000FFF75EFF012046E00B98002802D0A7
:1052900000200B990870EDB20D2D00DB0C25EDB24E
:1052A000002D06D0EDB22A00390001AC2000FDF738
:1052B000EBFA002403E00A20FFF743FF641CE4B28A
:1052C000C82C22DA6B463200D2B26846017C380024
:1052D000FFF77DFF002801D100201DE0684600781F
:1052E0000028E8D0EDB2002D0DD0684600782900E6
:1052F000C9B28842DFD3EDB22A00390001A8FDF718
:105300001BFB0028D7D1012006E00B98002802D013
:1053100001200B990870002005B0F0BD1CB51A00E3
:10532000049B9E4CA478002C01D100220023059CF4
:1053300001941C00E4B20094DBB2C9B2FFF784FF11
:1053400016BD0000FFFF0000A8F3000800B587B0FD
:1053500048226B461A72A52202AB5A7002AA9070BC
:105360000A0092B2120A02ABDA7002AA11714F213E
:105370006A461174AA21014004A8417000200190DE
:105380000220009004AB0022052102A8FFF7C6FF0F
:10539000002801D1002000E0012007B000BD80B549
:1053A0007E48008C582801D132200CE07B48008CCC
:1053B000622801D1502006E07848008C632801D192
:1053C000642000E01E200021C0B200F017F8002881
:1053D00001D1002000E0012002BD3EB502ABB54C7A
:1053E00025681D6001920322009202AB0022C9B21F
:1053F000FFF794FF3EBD00006D2C00203EB5040079
:105400000D0001A896490CC90CC0083908380020C5
:105410006248008C62280ED1A020694608700120E5
:105420006946487002226946E22000F03BFA0028F3
:1054300010D1002018E0312069460870C820694664
:105440004870022269467D2000F02CFA002801D124
:10545000002009E001A8C470002001A908712A00F9
:10546000052101A8FFF7B9FF3EBD01B582B068462E
:10547000AD490CC90CC00839083802A96846008932
:10548000FFF713FEFF2801D100200EE068460089D7
:105490006946C8706846008980B2000A694608718A
:1054A000002205216846FFF798FF0EBD30B583B096
:1054B00048246D462C7068246D466C706C46A07054
:1054C0006846C170684602711A0005216846FFF7F8
:1054D00084FF3EBD3EB502AAAC4B1C78147000227E
:1054E00001920122009202AB1022C9B2FFF716FF0F
:1054F0003EBD80B56846A6490A6802600421684638
:10550000FFF7E8FF02BD01B582B06846A1490A680D
:10551000026002A968460089FFF7C7FDFF2801D194
:1055200000200DE068460089694688706846008959
:1055300080B2000A6946C87004216846FFF7CAFFB6
:105540000EBD00B585B003A893490A68026002A8A1
:10555000B8490A680260002001900320009002AB65
:105560000022032103A8FFF7D9FE05B000BD00B556
:1055700085B003A8AA490A68026002A8AE490A6871
:105580000260002001900320009002AB0022032162
:1055900003A8FFF7C3FE05B000BD0000482C0020A3
:1055A00071B585B003A8A5490A68026003260025E5
:1055B00005A96846808AFFF778FDFF2801D1002001
:1055C0004CE06846808A9E49884209D1AF480078FD
:1055D000032802D1AE4C002621E0AE4CAE4D1EE0B9
:1055E0006846808AAD49884202D1AD4CBF4D16E075
:1055F0006846808ABE49884202D1BE4CBE4D0EE04C
:105600006846808ABD49884202D1BD4CBD4D06E046
:105610006846808ABC49884201D1BC4C00262000E3
:1056200080B2000A03A9487003A88470280080B2E1
:10563000000A6946087202A845706846007A02A905
:105640004978414002A8817000200190F6B200968E
:1056500002AB0022032103A8FFF760FE06B070BD75
:10566000B8FA000880B56846A9490A6802600421B2
:105670006846FFF72FFF02BD01B582B06846A54915
:105680000A68026002A968460089FFF70EFDFF283C
:1056900001D100200DE0684600896946887068469F
:1056A000008980B2000A6946C87004216846FFF785
:1056B00011FF0EBD68FB00081CB538236C46237033
:1056C0006B465870684681706846C270042168460F
:1056D000FFF700FF16BD30B5C9B2032902DAD2B216
:1056E000032A01DB00201EE0002300E05B1C9BB2CC
:1056F0001C2B17D2B84C9BB206255D436419C9B266
:1057000002254D43645B0588AC42EFD1B2499BB2A0
:1057100006245C430919D2B202235A43895A0180F4
:10572000012000E0002030BDC0FA0008F2B50400FE
:1057300015001E0044210022B94F3800FDF7D2F8B1
:105740003000002801D1002011E0E4B2002C00D18B
:105750006124B348047068460078B1494870B04885
:1057600085700020AE490871AD4846610120F2BD48
:10577000AB4988707047AA4BD870A9488161A84886
:10578000C2617047A649087170470000B4FB000869
:105790006CFB000870FB000874FB000838B50500BE
:1057A00028886B461880012492B2622A19D1C9B2A6
:1057B000002902D00021012201E001210022D2B201
:1057C000C9B26846FFF787FF002826D068460088E0
:1057D000AD49884201D100241FE068460088288036
:1057E0001BE092B2632A18D1C9B2002902D000216D
:1057F000022201E002210022D2B2C9B26846FFF7BC
:105800006AFF002809D0684600889F49884201D174
:10581000002402E06846008828802000C0B232BD23
:105820007CFB000880B57E4A128CC9B2FFF7B6FF38
:1058300002BD000078FB000880FB000884FB000824
:10584000E02E000031B584B00C001500012104A841
:10585000FFF7E8FF002801D1002015E06846008A24
:1058600080B2000A694608726846008A02A9487038
:10587000ADB201950094022302AA69480078410064
:1058800089B20020FFF787F805B030BD6C2C0020EE
:105890002C06000069060000960A0000282300007C
:1058A0004B06000031B584B00C001500012104A89E
:1058B000FFF7B8FF002801D1002015E06846008AF4
:1058C00080B2000A694608726846008A02A94870D8
:1058D000ADB201950094022302AA5148007841001C
:1058E00089B20020FFF7B4F805B030BD780A000097
:1058F000983A0000FE060000FE0A0000204E00005C
:10590000FF060000FF0A00008813000005060000E3
:1059100088FB00088CFB000810B582B000206946A7
:105920000870202100227C4C2000FCF7DBFF0222C3
:105930007A490020FFF786FF002849D002227849E3
:105940009248FFF77FFF002842D0FFF731FB002885
:105950003ED0022200A9891C9420FFF773FF002883
:1059600001D1002036E0002168464088FFF79DFB0A
:105970008749087001226946D0204000FFF762FF86
:10598000002801D1002025E0684600785A280FD170
:105990007F480078002802D00120924908702048F2
:1059A000008C002811D11E48408C00280DD10FE03A
:1059B0005A206946087001226946D0204000FFF74E
:1059C00071FF0028EBD1002004E001208E4908700F
:1059D0008D48007816BD000038EB000810B58A4BE2
:1059E0001B78002B01D1002018E0002802D04A4B80
:1059F0001B780370002906D08448474B1B78082485
:105A00006343C0580860002A07D08048424909789B
:105A100008235943401800791080012010BD000070
:105A2000482C002080B5FFF795FB002801D100200D
:105A300029E06C480078002801D0012023E06A4862
:105A40000079002801D001201DE0334800780128AA
:105A500007D014D3032809D005D305280CD008D3C8
:105A60000DE001200FE0FFF744FD0CE0FFF769FDBA
:105A700009E0FFF77CFD06E0FFF7F4FD03E0804955
:105A8000EE20FFF763FC02BDFFFF000080B5FFF7CB
:105A900061FB002801D1002013E052480078002863
:105AA00001D001200DE050480079002801D00120EC
:105AB00007E019480078002802D1FFF770FC00E0E9
:105AC000012002BD10B50400FFF744FB002801D1FE
:105AD000002020E010480078012807D017D30328C1
